:1000000000400020590C0000A90C0000A90C0000C1
:10001000A90C0000A90C0000A90C000000000000C1
:10002000000000000000000000000000A90C00001B
:10003000A90C000000000000A90C000085080000C9
:10004000A90C0000A90C0000A90C00006509000023
:10005000A90C0000A90C0000A90C0000A90C0000CC
:10006000A90C0000A90C0000A90C0000A90C0000BC
:10007000A90C0000A90C0000A90C0000A90C0000AC
:10008000A90C0000A90C0000A90C0000A90C00009C
:10009000A90C0000A90C0000A90C0000A90C00008C
:1000A000A90C0000A90C00005D0B0000A90C0000C9
:1000B000A90C0000A90C0000A90C0000A90C00006C
:1000C000A90C0000A90C0000A90C0000A90C00005C
:1000D000A90C0000A90C0000A90C0000A90C00004C
:1000E000A90C0000A90C0000A90C0000A90C00003C
:1000F000A90C0000A90C0000A90C0000A90C00002C
:10010000A90C0000A90C0000A90C0000A90C00001B
:10011000A90C0000A90C0000A90C0000A90C00000B
:10012000A90C0000A90C0000A90C0000A90C0000FB
:10013000A90C0000A90C0000A90C0000A90C0000EB
:10014000A90C0000A90C0000A90C0000A90C0000DB
:10015000A90C0000A90C000010B5054C237833B998
:10016000044B13B10448AFF300800123237010BD8A
:100170004C000020000000007411000008B5034B83
:100180001BB103490348AFF3008008BD0000000025
:100190005000002074110000A3F5803A704700BFA2
:1001A000154B002B08BF114B9D46FFF7F5FF0021B3
:1001B0008B460F461148124A121A00F03DF80C4BBC
:1001C000002B00D098470B4B002B00D09847002005
:1001D000002104000D000B4800F016F800F07EF836
:1001E0002000290000F004FB00F014F800000800D3
:1001F0000000000000000000004000204C00002033
:10020000600300202D030000002301461A46184613
:1002100000F0B4B808B5064B044613B1002100F055
:100220000BF9044B1B6803B19847204600F094FF7C
:1002300039040000A0010020830730B547D0541EC8
:10024000002A3ED0CAB2034601E0013C39D303F88C
:10025000012B9D07F9D1032C2CD9CDB205EB052537
:100260000F2C05EB054535D9A4F1100222F00F0C37
:1002700003F1100EE6444FEA121C1A46C2E900557B
:10028000C2E9025510327245F8D10CF1010214F0A6
:100290000C0F03EB021204F00F0C13D0ACF10403AB
:1002A00023F003030433134442F8045B9342FBD16D
:1002B0000CF003042CB1C9B21C4403F8011BA34287
:1002C000FBD130BD64461346002CF4D1F9E7034658
:1002D0001446C0E71A46A446E0E700BF70B50F4BCE
:1002E0000F4DAB42A3EB050607D0B610002455F81E
:1002F000043B01349847A642F9D800F02FFF094D7E
:10030000094B5E1BAB424FEAA60606D0002455F807
:10031000043B01349847A642F9D870BD4400002040
:1003200044000020440000204800002038B5074D5C
:10033000074C2C1BA41005D0013C55F8043D9847F0
:10034000002CF9D1BDE8384000F00EBF4C00002071
:1003500048000020704700BF704700BF704700BFD3
:10036000704700BF704700BF704700BF0120704753
:1003700001207047704700BF704700BF2DE9F04D66
:10038000DFF8B0A00746DAF800001E46884693461C
:10039000FFF7EAFF234B1D6835B36C681F2C3ADC6E
:1003A000B7B1D5F8880040B3D0F8003140F824B098
:1003B0000122A2401343C0F8003100EB8403022F56
:1003C000C3F8806004D1D0F804311343C0F804317D
:1003D000631C0234DAF800006B6045F82480FFF7F4
:1003E000CBFF0020BDE8F08D0F49104A1A6011B113
:1003F0000B68C2F888300D4DCFE70D4B5BB14FF461
:100400008470AFF3008030B10023C0E940336C68E2
:10041000C5F88800CAE7DAF80000FFF7ADFF4FF033
:10042000FF30DFE75002002000000000C401002080
:1004300000000000000000202DE9F04F324ADFF8F4
:10044000CC9083B00346106801938846FFF78CFF79
:10045000D9F80060002E32D07568D6F888706C1E0E
:100460002DD4013506EB850507F1800BB8F1000F9F
:100470002CD173682A68013BA34216BF0023746025
:100480002B60BAB1D6F804A08FB3D7F800110123BE
:10049000A3400B422BD0D7F8040157F82410034295
:1004A0002FD1019890477368D9F80020534524D183
:1004B000B24222D1013C631CA5F10405D6D1124BF6
:1004C000186803B0BDE8F04FFFF756BF57B15BF8AF
:1004D00024304345CDD0013C621CA5F10405EED08B
:1004E000002FF4D1013CEAD3013CFBD2E7E790476F
:1004F0007368D9F800205345DAD0002ADFD01646B9
:10050000AAE708469047CEE70000002050020020EE
:1005100080B487B000AF01233B612C4B5B69C3F310
:100520000103DBB2FB60FB68032B49D8FB68022B9D
:100530000ED2FB68002B03D0FB68012B04D03FE0F8
:10054000234B244A1A603BE0214B234A1A6037E0D0
:10055000FB68032B06D11D4BDB68C3F30523DBB21D
:1005600001333B61194B9B68C3F30523DBB2BB60CE
:10057000164B9B68C3F30503DBB27B60134B9B6890
:10058000C3F30143DBB23B60104B9B68C3F30053E2
:10059000DBB2012B02D10F4B7B6101E00E4B7B6183
:1005A0007B697A6803FB02F2B9683B6801FA03F3DE
:1005B000396901FB03F3B2FBF3F3054A136000BF93
:1005C00000BF1C37BD465DF8047B70470010044037
:1005D0005402002000127A000024F40080B483B09A
:1005E00000AF00237B6002E07B6801337B60384B07
:1005F0005B69C3F34063DBB2002B03D17B68B3F5C7
:10060000801FF1D37B68B3F5801F01D100BFFDE7E8
:100610002F4B40F219229A602D4B9B682C4A43F0D5
:10062000806343F48033936000BF294B9B68C3F31E
:100630000073DBB2002BF8D0264B4FF44032DA6265
:1006400002233B60224A3B68136100237B6002E087
:100650007B6801337B601E4B5B69C3F30103DAB235
:100660001B4B1B69C3F30103DBB29A4203D07B68C7
:10067000B3F5801FECD37B68B3F5801F01D100BFB9
:10068000FDE7144AD36A43F48073D36200BF114B71
:100690005B6BC3F30003DBB2002BF8D10D4AD36AC6
:1006A00043F40073D36200BF0A4B9B6BC3F3000398
:1006B000DBB2002BF8D1074BDB6A064A43F0070395
:1006C000D36200BF0C37BD465DF8047B704700BFA6
:1006D000001004400000034080B400AF074B4FF40B
:1006E0007002C3F88820BFF34F8F00BFBFF36F8F36
:1006F00000BF00BFBD465DF8047B704700ED00E021
:1007000080B500AF024B9847024B984700BF80BDB1
:10071000DD050000D906000080B483B000AF0346B9
:10072000FB7197F90730002B0BDBFB7903F01F02FD
:10073000074997F907305B09012000FA02F241F8F6
:10074000232000BF0C37BD465DF8047B704700BF17
:1007500000E100E080B483B000AF03463960FB7174
:1007600097F90730002B0ADB3B68DAB20C4997F99E
:1007700007305201D2B20B4483F800230AE03B68F1
:10078000DAB20849FB7903F00F03043B5201D2B2FD
:100790000B441A7600BF0C37BD465DF8047B7047EA
:1007A00000E100E000ED00E080B582B000AF7860CD
:1007B0007B68013BB3F1807F01D301230FE00A4A3C
:1007C0007B68013B536007214FF0FF30074B984790
:1007D000054B00229A60044B07221A60002318463A
:1007E0000837BD4680BD00BF10E000E0550700009F
:1007F00080B500AF164B9847164B9847164B984755
:100800001648174B9847174B9847174B9847174868
:10081000174B984703469BB219461448154B984707
:10082000154B1B78DBB2002BFAD01448104B9847BD
:1008300003469BB2194611480E4B98470E4B0022B7
:100840001A70402200210D480D4B9847E8E700BF81
:1008500011050000B1080000F9080000809698001A
:10086000A9070000A9090000E90900000400002010
:10087000811000001D0C00005E0300205C020020BF
:100880003902000080B400AF00BFBD465DF8047BB4
:100890007047000080B400AF044A138A43F48073A9
:1008A000138200BFBD465DF8047B70470000014025
:1008B00080B400AF0E4A92F8003143F0010382F891
:1008C00000310B4A92F8043143F0010382F80431FD
:1008D000084A938A43F480739382064A938D43F4C3
:1008E0008073938500BFBD465DF8047B704700BFF1
:1008F000001004400000014080B500AF164A92F895
:10090000003143F0010382F80031134A92F80431B8
:1009100043F0010382F80431104A938A43F08003C4
:1009200093820E4AB2F8683023F08003A2F8683050
:100930000A4AB2F8703023F08003A2F87030074AF8
:10094000B2F8603043F08003A2F860300320044B1B
:10095000984700BF80BD00BF001004400000014068
:100960001907000080B500AF0B4AB2F8803043F0A1
:100970008003A2F88030094B9847074B1B68DB09BE
:1009800003F00103064A1360054B1B68012B01D1DC
:10099000044B984700BF80BD00000140950800004F
:1009A00058020020C909000080B400AF054A13892D
:1009B00043F48073138101231846BD465DF8047B20
:1009C000704700BF0000014080B400AF054A938922
:1009D00043F48073938100231846BD465DF8047B81
:1009E000704700BF0000014090B585B000AF504A8D
:1009F00092F8003143F0020382F800314C4A92F839
:100A0000043143F0020382F804314A4A938E43F4DE
:100A100080639386474A938A43F480639382454A6E
:100A2000938E43F400639386424A938A43F40063AF
:100A300093823F4A136E23F4803313663C4A136E4D
:100A4000012161F309231366394A136E43F0100341
:100A50001366374A136E43F001031366364BFB608F
:100A60004FF4E133BB60BB681B01FA68B2FBF3F3E0
:100A70007B60FB6807EE903AF8EE676ABB6807EEAA
:100A8000903AF8EE677AB3EE007A67EE877A86EEF0
:100A9000A77A7B6807EE903AF8EE677A77EE677A86
:100AA0009FED267A67EE877A254B17EE900A9847D6
:100AB000244C4FF00002244BA04702460B46234C27
:100AC00010461946A04703463B60214A7B685362A3
:100AD0001F4A3B6893621E4A92F82C3043F0600331
:100AE00082F82C301A4A92F82C3023F0080382F84E
:100AF0002C30174A138E43F400731386144A138E56
:100B000043F480731386124A138F43F01003138744
:100B100000211A200F4B98471A200F4B98470C4A78
:100B2000138E43F00103138600BF1437BD4690BDFA
:100B3000001004400010014000E1F5050000804273
:100B4000750F0000B90C00000000E03F2510000008
:100B500000500440550700001907000080B582B01E
:100B600000AF164B9847164B1B889BB2FF2B1AD829
:100B7000144B1B68FB71124B1B889BB21946124A1F
:100B8000FB795354FB790A2B06D10D4B00221A80B6
:100B90000E4B01221A7006E0094B1B889BB20133F1
:100BA0009AB2074B1A80074AB2F8443043F0100358
:100BB000A2F8443000BF0837BD4680BD950800004C
:100BC0005C030020005004405C0200205E03002013
:100BD00080B485B000AF78600E4BFB6000BF0E4B59
:100BE0009B69C3F3C003DBB2012B04D1FB685A1E1F
:100BF000FA60002BF3D1FB68002B04D07B681A78D5
:100C0000054B1A6000E000BF1437BD465DF8047B59
:100C1000704700BF40420F000050044080B584B0D0
:100C200000AF78600B467B800023FB6008E0FB6828
:100C30007A6813441846074B9847FB680133FB60FA
:100C40007B88FA689A42F2DB00BF00BF1037BD46CE
:100C500080BD00BFD10B00000F4C104DAC4209DA33
:100C600021686268A368043BA2BFC858D050FAE765
:100C70000C34F3E70A4B0B4CA34208DA19685A68A4
:100C80000020043AA4BF8850FBE70833F4E7FFF7DD
:100C900037FDFFF785FA0000801100008C1100007D
:100CA0008C11000094110000FEE700BF81F00041AC
:100CB00002E000BF83F0004330B54FEA41044FEA41
:100CC000430594EA050F08BF90EA020F1FBF54EADC
:100CD000000C55EA020C7FEA645C7FEA655C00F078
:100CE000E2804FEA5454D4EB5555B8BF6D420CDD49
:100CF0002C4480EA020281EA030382EA000083EACC
:100D0000010180EA020281EA0303362D88BF30BD6B
:100D100011F0004F4FEA01314FF4801C4CEA1131C1
:100D200002D0404261EB410113F0004F4FEA033320
:100D30004CEA133302D0524263EB430394EA050FAB
:100D400000F0A780A4F10104D5F1200E0DDB02FA1A
:100D50000EFC22FA05F2801841F1000103FA0EF2AE
:100D6000801843FA05F359410EE0A5F120050EF174
:100D7000200E012A03FA0EFC28BF4CF0020C43FAA5
:100D800005F3C01851EBE37101F0004507D54FF0B2
:100D9000000EDCF1000C7EEB00006EEB0101B1F502
:100DA000801F1BD3B1F5001F0CD349085FEA300048
:100DB0004FEA3C0C04F101044FEA445212F5800F53
:100DC00080F09A80BCF1004F08BF5FEA500C50F1F0
:100DD000000041EB045141EA050130BD5FEA4C0CD3
:100DE000404141EB0101013C28BFB1F5801FE9D230
:100DF00091F0000F04BF01460020B1FA81F308BF53
:100E00002033A3F10B03B3F120020CDA0C3208DD1E
:100E100002F1140CC2F10C0201FA0CF021FA02F1F9
:100E20000CE002F11402D8BFC2F1200C01FA02F169
:100E300020FA0CFCDCBF41EA0C019040E41AA2BF8E
:100E400001EB0451294330BD6FEA04041F3C1CDA56
:100E50000C340EDC04F11404C4F1200220FA04F076
:100E600001FA02F340EA030021FA04F345EA030120
:100E700030BDC4F10C04C4F1200220FA02F001FAE2
:100E800004F340EA0300294630BD21FA04F0294664
:100E900030BD94F0000F83F4801306BF81F48011FD
:100EA0000134013D4EE77FEA645C18BF7FEA655C70
:100EB00029D094EA050F08BF90EA020F05D054EA42
:100EC000000C04BF1946104630BD91EA030F1EBF47
:100ED0000021002030BD5FEA545C05D1400049414B
:100EE00028BF41F0004130BD14F580043CBF01F53E
:100EF000801130BD01F0004545F0FE4141F4700124
:100F00004FF0000030BD7FEA645C1ABF19461046FE
:100F10007FEA655C1CBF0B46024650EA013406BFFF
:100F200052EA033591EA030F41F4002130BD00BFBE
:100F300090F0000F04BF0021704730B54FF480647B
:100F400004F132044FF000054FF0000150E700BFFC
:100F500090F0000F04BF0021704730B54FF480645B
:100F600004F1320410F0004548BF40424FF0000148
:100F70003EE700BF42004FEAE2014FEA31014FEA8B
:100F800002701FBF12F07F4393F07F4F81F06051DA
:100F9000704732F07F4208BF704793F07F4F04BF25
:100FA00041F40021704730B54FF4607401F0004502
:100FB00021F000411CE700BF50EA010208BF704762
:100FC00030B54FF000050AE050EA010208BF704753
:100FD00030B511F0004502D5404261EB41014FF4BC
:100FE000806404F132045FEA915C3FF4D8AE4FF0C4
:100FF00003025FEADC0C18BF03325FEADC0C18BFA7
:10100000033202EBDC02C2F1200300FA03FC20FAF7
:1010100002F001FA03FE40EA0E0021FA02F1144444
:10102000BDE600BF4A0011D212F5001211D20DD553
:101030006FF47873B3EB62520ED44FEAC12343F0DE
:10104000004343EA505323FA02F070474FF0000088
:10105000704750EA013002D14FF0FF3070474FF037
:1010600000007047000000000000000000000000C9
:101070000000000000000000000000000000000070
:1010800030B490F800F020F007016FF0000C10F081
:10109000070491F820F040F048804FF000046FF012
:1010A0000700D1E9002391F840F000F1080082FA2E
:1010B0004CF2A4FA8CF283FA4CF3A2FA8CF34BBBF9
:1010C000D1E9022382FA4CF200F10800A4FA8CF272
:1010D00083FA4CF3A2FA8CF3E3B9D1E9042382FA40
:1010E0004CF200F10800A4FA8CF283FA4CF3A2FA55
:1010F0008CF37BB9D1E9062301F1200182FA4CF28D
:1011000000F10800A4FA8CF283FA4CF3A2FA8CF3F3
:10111000002BC6D0002A04BF04301A4612BAB2FA15
:1011200082F200EBD20030BC7047D1E9002304F01A
:101130000305C4F100004FEAC50514F0040F91F84F
:1011400040F00CFA05F562EA05021CBF63EA0503EC
:1011500062464FF00004AAE7FEE700BFF8B500BF03
:10116000F8BC08BC9E467047F8B500BFF8BC08BC88
:081170009E46704700000000DC
:0811780020F0FF7F01000000E0
:0C11800094110000000000204C00000052
:08118C004C00002014030000D8
:10119400BC01002048656C6C6F2066726F6D204B3B
:1011A40031393231564B303335206D6963726F6398
:1011B4006F6E74726F6C6C65720D0A000000000033
:1011C400000000000000000000000000000000001B
:0C11D400000000007D0100005901000037
:0400000300000C5994
:00000001FF
